:200000000C9434001895000018950000189500000C94CB1C18950000189500001895000077
:20002000189500001895000018950000189500001895000018950000189500001895000058
:20004000189500001895000018950000189500001895000018950000189500001895000038
:2000600018950000189500008FEF8DBFC0ECEAE14E2E88E08EBFD8E0F8E05F2EA89584B71F
:20008000082E877F84BF88E199278093600090936000EEEFF7E0A0E0B1E088278D93319766
:2000A000E9F7662487E880937A0080E080937C0070917A00706870937A0000917C00007F8F
:2000C0000E6000937C000E941D32A0E0B1E08D939C930E94771DA0E0B1E00D911C91053289
:2000E00050E0150718F011F00C9478000C947A00F894FFCF5B9A5A9A409A539A529A389AB1
:200100002F9A279A7DB57E7F7DBD229A2A9A0E944428549A78E17093C10070EC7093C20032
:2001200070E07093C50071E07093C400559A569A579A269A2E9A8AE090E00E94572870E0EC
:200140007093C4000E94F628A0E2B3E09C933A983B983C983D98429A439A449A459A0E946E
:200160003E1181E00E944829092F003011F40C94DA0088EC8093140184E1809315010E9409
:200180009C060E94EB0C709124017064709324015A924A92D201E6E0F8E60E9417328FE069
:2001A0000E94E6310E94DA0822968FE00E94D1270C94FA005A924A9280E0D2018C9381E02C
:2001C0000E94E6310E94C724229681E00E94D1270E949C065A924A92D201E6E1F8E60E9400
:2001E000173288E00E94E6310E94670B229688E00E94D1270E94771D0E94300D5A924A92EA
:20020000D201EEE1F8E60E94173288E00E94E6310E94DA08229688E00E94D1270E9451071A
:20022000E1E0F0E00E943B287091240170627093240181E080939007A2E9B7E00C9100FB43
:2002400016F00C9426017FEF7093660000919107003011F00C94640234990C944901A6E25B
:20026000B0E08C9184FBDEF70E940926A0E9B7E08C918F5F8C9300919007063011F00C9463
:20028000440185E0809390077091240170627093240133990C946601A6E2B0E08C9183FB64
:2002A000DEF70E9409268091900781508093900700919007003011F00C94610181E08093A6
:2002C000900770912401706270932401A4E2B1E08C9185FB16F00C94FB01709124017F7DEF
:2002E000709324010E94BD0C5A924A92D201E6E2F8E60E94173285E50E94E6310E94DA0898
:20030000229685E50E94D12700919007013011F00C949A010E94D40CA4E9B7E0ECE7F8E635
:200320000E941732A3EAB7E0ECE8F8E60E9417320C94E201023011F00C94AE010E94EB0C73
:20034000A4E9B7E0E2E9F8E60E941732A3EAB7E0E2EAF8E60E9417320C94E201033011F075
:200360000C94C2010E94020DA4E9B7E0EAEAF8E60E941732A3EAB7E0EAEBF8E60E941732E6
:200380000C94E201043011F00C94D6010E94190DA4E9B7E0E0ECF8E60E941732A3EAB7E089
:2003A000E0EDF8E60E9417320C94E201053011F00C94E2010E94300DA4E9B7E0E6EDF8E6B7
:2003C0000E941732709124017064709324015A924A92E4E9F7E0D2010E94CC338FE00E941F
:2003E000E6310E94DA0822968FE00E94D1270E94771D0E94510735990C941102A6E2B0E0D8
:200400008C9185FBDEF70E9409260E9409260E94092681E0809391077091240170627093F0
:20042000240132990C946202E1E0F0E00E943B2832990C94620270917A007F7770937A0075
:2004400070E07093C10070E07CBD80E084B980E087B980E08AB970E075B970E078B970E0D0
:200460007BB9789474E070936C00329AA6E2B0E08C9182FBDEF7E1E0F0E00E943B2870918F
:200480006800726070936800756073BF8895E1E0F0E00E943B2832990C94600274B7777F0F
:2004A00074BF88E18093600080E08093600080916000886080936000F894FFCF0C94620230
:2004C0000C9444020C947D0634990C94B902A6E2B0E08C9184FBDEF70E940926A1E9B7E070
:2004E0008C918F5F8C9300919007013081E009F080E08F9300919007023081E009F080E089
:200500009F91892B882311F40C948F0200919107043011F00C948F0283E0809391070091E8
:200520009007033081E009F080E08F9300919007043081E009F080E09F91892B882311F46B
:200540000C94AB0200919107053011F00C94AB0284E08093910700919107063011F00C9493
:20056000B40285E0809391077091240170627093240133990C94D602A6E2B0E08C9183FB9E
:20058000DEF70E9409268091910781508093910700919107003011F00C94D10281E080934F
:2005A00091077091240170627093240135990C94EE02A6E2B0E08C9185FBDEF77091240175
:2005C000706170932401709124017062709324010E9409260E9409260E940926A4E2B1E078
:2005E0008C9185FB16F00C945E060E94771D709124017F7D709324015A924A9282E1D201D6
:200600008C9381E00E94E6315A924A9288E0D2018C9381E00E94E6315A924A9284E5D20161
:200620008C9381E00E94E6315A924A9288E0D2018C9381E00E94E6310E94BA09289684E0BE
:200640000E94D1275A924A9282E1D2018C9381E00E94E6315A924A9288E0D2018C9381E046
:200660000E94E6315A924A9282E1D2018C9381E00E94E6315A924A9280E3D2018C9381E00C
:200680000E94E6310E94BA09289684E00E94D1275A924A9284E0D2018C9381E00E94E63148
:2006A0005A924A9282E0D2018C9381E00E94E6310E94EA07249682E00E94D1270091900793
:2006C000053011F00C946C03A4E9B7E0E6EEF8E60E9417320C947203A4E9B7E0E2EFF8E62C
:2006E0000E94173200919107013011F00C947D03709124017064709324015A924A92E4E9DD
:20070000F7E0D2010E94CC338FE00E94E6310E94DA0822968FE00E94D1275A924A9284E0F5
:20072000D2018C9381E00E94E6315A924A9283E0D2018C9381E00E94E6310E94EA07249629
:2007400082E00E94D12700919007053011F00C94B103A4E9B7E0EEEFF8E60E9417320C9481
:20076000B703A4E9B7E0EAE0F9E60E94173200919107023011F00C94C2037091240170644C
:20078000709324015A924A92E4E9F7E0D2010E94CC338FE00E94E6310E94DA0822968FE07E
:2007A0000E94D1275A924A9284E0D2018C9381E00E94E6315A924A9284E0D2018C9381E0E8
:2007C0000E94E6310E94EA07249682E00E94D12700919007053011F00C94F603A4E9B7E0FC
:2007E000E6E1F9E60E9417320C94FC03A4E9B7E0E2E2F9E60E94173200919107033011F0BA
:200800000C940704709124017064709324015A924A92E4E9F7E0D2010E94CC338FE00E941A
:20082000E6310E94DA0822968FE00E94D1275A924A9284E0D2018C9381E00E94E6315A9238
:200840004A9285E0D2018C9381E00E94E6310E94EA07249682E00E94D127009190070330A7
:2008600011F00C943B04A4E9B7E0EEE2F9E60E9417320C945D0400919007043011F00C94DC
:200880004904A4E9B7E0EAE3F9E60E9417320C945D0400919007053011F00C945704A4E969
:2008A000B7E0E6E4F9E60E9417320C945D04A4E9B7E0E2E5F9E60E941732009191070430FA
:2008C00011F00C946804709124017064709324015A924A92E4E9F7E0D2010E94CC338FE09A
:2008E0000E94E6310E94DA0822968FE00E94D1275A924A9284E0D2018C9381E00E94E631C2
:200900005A924A9286E0D2018C9381E00E94E6310E94EA07249682E00E94D127009190072C
:20092000053011F00C949C04A4E9B7E0EEE5F9E60E9417320C94A204A4E9B7E0E2E5F9E670
:200940000E94173200919107053011F00C94AD04709124017064709324015A924A92E4E945
:20096000F7E0D2010E94CC338FE00E94E6310E94DA0822968FE00E94D12700919107013065
:2009800011F00C94DF0400919007053011F00C94D404A4E2B1E08C9184FB16F00C94D204CE
:2009A0000E94021D0C94DD04A4E2B1E08C9184FB16F00C94DD040E94D81D0C940B06023041
:2009C00011F00C94FF0400919007053011F00C94F404A4E2B1E08C9184FB16F00C94F2042E
:2009E0000E94021D0C94FD04A4E2B1E08C9184FB16F00C94FD040E94BB1F0C940B060330DB
:200A000011F00C941F0500919007053011F00C941405A4E2B1E08C9184FB16F00C9412058A
:200A20000E94021D0C941D05A4E2B1E08C9184FB16F00C941D050E94FA200C940B06043017
:200A400011F00C94F80500919007033011F00C948E05A4E2B1E08C9184FB16F00C948C057F
:200A60000E942D0EA4E2B1E08C9183FB16F40C9485055A924A92D201EAE6F9E60E9417327E
:200A80008FE00E94E6310E94DA0822968FE00E94D1270E94020D0E94AF125A924A92E4E940
:200AA000F7E0D2010E94CC338FE00E94E6310E94DA0822968FE00E94D1270E94190D5A92CA
:200AC0004A92D201EAE7F9E60E9417328CE00E94E6310E94DA0822968CE00E94D1270E94C3
:200AE000BE110E94300D5A924A92E4E9F7E0D2010E94CC338FE00E94E6310E94DA08229604
:200B00008FE00E94D1270E9451070E943E11A6E2B0E08C9182FBDEF30C94F605009190079B
:200B2000043011F00C94E705A4E2B1E08C9184FB16F00C94E5050E942D0EA4E2B1E08C91A0
:200B400083FB16F40C94DE050E9442145A924A92D201E6E8F9E60E9417328FE00E94E63137
:200B60000E94DA0822968FE00E94D1270E94020D5A924A92D201E6E9F9E60E9417328CE0DF
:200B80000E94E6310E94DA0822968CE00E94D1270E94A9130E94190D5A924A92E4E9F7E0C8
:200BA000D2010E94CC338FE00E94E6310E94DA0822968FE00E94D1270E9451070E943E1169
:200BC000A6E2B0E08C9182FBDEF30C94F60500919007053011F00C94F605A4E2B1E08C91CA
:200BE00084FB16F00C94F6050E94021D0C940B06053011F00C940B0600919007053011F01E
:200C00000C940B06A4E2B1E08C9184FB16F00C940B060E94021D5A924A9284E5D2018C93D5
:200C200081E00E94E6315A924A9288E0D2018C9381E00E94E6315A924A9284E5D2018C933B
:200C400081E00E94E6315A924A9280E3D2018C9381E00E94E6310E94BA09289684E00E941A
:200C6000D1275A924A9282E1D2018C9381E00E94E6315A924A9280E3D2018C9381E00E9425
:200C8000E6315A924A9284E5D2018C9381E00E94E6315A924A9280E3D2018C9381E00E94E0
:200CA000E6310E94BA09289684E00E94D1270E945107709124017F7E7093240132990C944C
:200CC0007D0600919007053011F00C9475065A924A9281E0D2018C9381E00E94E6310E9441
:200CE000C724229681E00E94D12780E080939107709124017062709324010C942601F894D8
:200D0000FFCF81E00E94E0315E985D98AA81BB818C918093C6008091C00087FFFCCFA8815E
:200D2000B9818091C6008C935D9A5E9A81E0481A80E0580A2296089585E090E00E945728C4
:200D40005F9885E090E00E9457285F9A5E9A5A924A9281E2D2018C9381E00E94E6310E94DC
:200D60008106229681E00E94D1275A924A9285E0D2018C9381E00E94E6310E94810622961F
:200D800081E00E94D1275A924A9286E0D2018C9381E00E94E6310E948106229681E00E943A
:200DA000D1275A924A9280911401D2018C9381E00E94E6310E948106229681E00E94D12765
:200DC0005A924A9280911501D2018C9381E00E94E6310E948106229681E00E94D1275A9250
:200DE0004A9280E2D2018C9381E00E94E6310E948106229681E00E94D1275A924A928CE099
:200E0000D2018C9381E00E94E6310E948106229681E00E94D1275A924A9280E4D2018C93CC
:200E200081E00E94E6310E948106229681E00E94D1275A924A9280E8D2018C9381E00E9497
:200E4000E6310E948106229681E00E94D1270E942C070E945107089582E00E94E031A881F5
:200E6000B9810E948F32A881B9810E94D92780E0A881B981AD90BC90A4E2B1E0AA0DBB1DDE
:200E80008C93A881B9810D911C91083F51E0150711F00C94330782E0481A80E0580A2296D8
:200EA0000895A2E9B7E08C9186FBA4ECB0E08C9180F98C9381E00E94E03182E00E94E031D7
:200EC00081E00E94E0315A924A9280E8D2018C9381E00E94E6310E948106229681E00E94DE
:200EE000D1275A924A9280E4D2018C9381E00E94E6310E948106229681E00E94D127AA81BB
:200F0000BB810E948F3280E0A881B9818C935E985D9AAA81BB810E94D927AA81BB81AD90B6
:200F2000BC90A4E2B1E0AA0DBB1D8C918093C6008091C00087FFFCCFAC81BD818091C60065
:200F40008C93A2E9B7E00C9107FB16F00C94D007A881B9818C918F5F8C93A881B9810C91A7
:200F6000043511F00C94D007A881B9818C918F5F8C9370E07093C6008091C00087FFFCCFF8
:200F8000AC81BD818091C6008C93A881B9810C91063611F00C94B40780E0A881B9818C9376
:200FA000AA81BB810D911C91083F51E0150711F00C9489075E9A5D98709124017F777093AE
:200FC000240170E07093C40084E0481A80E0580A2696089582E00E94E03182E00E94E031CA
:200FE000AE81BF810E94D527AE81BF818C91AA81BB818D9388278C93AA81BB810D911C9151
:2010000046E050E00E94EA31AA81BB810D931C93AC81BD810E94D527AC81BD818C91A8814D
:20102000B9818D9388278C93AC81BD810D91112744E550E00E94EA31A881B9810D931C937F
:20104000AA81BB810D911C91A881B9814D915C91040F151FADE1B3E00D931C93ADE1B3E0D8
:201060000E94D92784E0481A80E0580A2496089581E00E94E03182E00E94E03181E00E94C3
:20108000E03181E00E94E03181E00E94E03182E00E94E03182E00E94E031AE85BF850C91D9
:2010A000003210F00C9458088CE5AE85BF858C93AE85BF850C910C3718F011F00C9462088D
:2010C0000C9466088CE5AE85BF858C93AE85BF850D91112740E250E0041B150BAA85BB85AE
:2010E0000D931C93AA85BB850D911C9145E050E00E94EA31AA85BB850D931C9380E0AC8586
:20110000BD858C93AC85BD858C918F5F8C93EEE8FAE1AA85BB858D919C91A885B9850E9459
:201120008C32A4E2B1E08C9186FB16F00C94AE08AC85BD850C91063011F00C94A5088FEFCE
:20114000A885B9858C930C94AC08A885B9858C918C939FEF89278C930C94B908AC85BD85D9
:201160000C91063011F00C94B90880E0A885B9858C93A885B9858C91ADE1B3E0AD90BC901E
:20118000A4E2B1E0AA0DBB1D8C93ADE1B3E00E94D927AA85BB850E94D927AC85BD850C91A6
:2011A000063011F00C9482088AE0481A80E0580A2E96089581E00E94E03182E00E94E031B6
:2011C00080E0AA81BB818C93AA81BB818C918F5F8C93AA81BB818C91EC81FD8101E00A93AB
:2011E000A981BA810E94D833A881B9818C91AFE1B3E08C9300911F030E3711F00C94030976
:201200008BE780931F035A924A9280911F03D2018C9381E00E94E6310E943808229681E025
:201220000E94D127AC81BD810E94E733482FAA81BB810C91041711F00C94E40870912401A4
:201240007F7B7093240183E0481A80E0580A2496089582E00E94E03181E00E94E03181E004
:201260000E94E031A885B9850C91043518F011F00C943C090C943E090C94B409AE81BF81D9
:201280000C91003318F011F00C9448090C944A090C94B409AE81BF810E94D527AE81BF81B8
:2012A0008C91AC81BD818D9388278C9393E0AC81BD810E946032AC81BD818C91AA81BB81B7
:2012C0008C93AC81BD810D911C9144E550E00E94EA31AC81BD810D931C93AC81BD810D9160
:2012E0001C91A885B9854D915527040F151FAC81BD810D931C9393E0AA81BB810E94343299
:20130000AE81BF810C91AA81BB814C91041BAA81BB810C93AC81BD81AD90BC90A4E2B1E04D
:20132000AA0DBB1D8C918093230181E0A881B9818C93AA81BB819C91A881B9810E943432E8
:2013400000912301A881B9814C91042BA3E2B1E00C9380912301AC81BD81AD90BC90A4E205
:20136000B1E0AA0DBB1D8C9384E0481A80E0580A2696089582E00E94E03182E00E94E03123
:2013800082E00E94E03182E00E94E03182E00E94E03181E00E94E031AC85BD850D911127B1
:2013A000A889B9894D915527041B150BA885B9850D931C93AE85BF850D911127AA89BB89A3
:2013C0004D915527041B150BAA85BB850D931C93A885B9850D911C91003050E015070CF484
:2013E00002C00C94070AA885B9850D911C914FEF5FEF0E94EA31A885B9850D931C938FEF43
:201400009FEFAC81BD818D939C930C940D0A81E090E0AC81BD818D939C93AA85BB850D9135
:201420001C91003050E015070CF402C00C942C0AAA85BB850D911C914FEF5FEF0E94EA31E8
:20144000AA85BB850D931C938FEF9FEFAE81BF818D939C930C94320A81E090E0AE81BF81E8
:201460008D939C9391E0AA85BB850E943C3291E0A885B9850E943C325A924A92AC89BD89FE
:201480008C91D2018C9381E00E94E6315A924A92AC89BD898C91D2018C9381E00E94E631B7
:2014A0000E942909249682E00E94D127A885B9854D915C91AA85BB850D911C91041715077B
:2014C0001CF011F00C94660A0C94E20AAA85BB858C91A881B9818C9391E0A881B9810E94DF
:2014E0005832A885B9850D911C91A881B9814D915527041B150BAA81BB810D931C93AE85C7
:20150000BF854C91AA89BB890C91041711F40C94E00AAA81BB810D911C91003050E01507BE
:201520000CF002C00C94AC0AA889B9890C91AC81BD814C91040FA889B9890C93AA81BB81B3
:201540000D911C91AA85BB854D915C91041B150BAA81BB810D931C93AA89BB890C91AE81CE
:20156000BF814C91040FAA89BB890C93AA81BB810D911C91A885B9854D915C91040F151FF6
:20158000AA81BB810D931C935A924A92AC89BD898C91D2018C9381E00E94E6315A924A9261
:2015A000AC89BD898C91D2018C9381E00E94E6310E942909249682E00E94D1270C947F0AD4
:2015C0000C945C0BA885B9858C91A881B9818C9391E0A881B9810E945832AA85BB850D91ED
:2015E0001C91A881B9814D915527041B150BAA81BB810D931C93AC85BD854C91A889B989C9
:201600000C91041711F40C945C0BAA81BB810D911C91003050E015070CF002C00C94280B47
:20162000AA89BB890C91AE81BF814C91040FAA89BB890C93AA81BB810D911C91A885B98504
:201640004D915C91041B150BAA81BB810D931C93A889B9890C91AC81BD814C91040FA8892E
:20166000B9890C93AA81BB810D911C91AA85BB854D915C91040F151FAA81BB810D931C93A0
:201680005A924A92AC89BD898C91D2018C9381E00E94E6315A924A92AC89BD898C91D201AB
:2016A0008C9381E00E94E6310E942909249682E00E94D1270C94FB0A7091240170687093C1
:2016C00024018BE0481A80E0580A2C96089582E00E94E03182E00E94E03181E00E94E031B9
:2016E00081E00E94E03181E00E94E03181E00E94E03181E00E94E031A2E0B8E0E2EAF9E6D5
:201700000E941732A2E0B8E00E94F629A2E0B8E0E4EAF9E60E941732A2E0B8E00E94F62976
:20172000AE85BF850E94F62900912403003011F40C94B80BA2E0B8E0E2EAF9E60E94173271
:20174000A2E0B8E00E94F629A2E0B8E0E4EAF9E60E941732A2E0B8E00E94F629AE85BF85AA
:201760000E943428ECEAF9E60E9417320C94C40BA2E0B8E0E2EBF9E60E941732A2E0B8E091
:20178000EE85FF850E949C2A0E947A2EA3E9B7E08C93A3E9B7E08C91AE85BF850E943E2A9D
:2017A0000BE010E020E030E06894A3E9B7E08C91AC85BD850E94812AAC85BD850E94D9272D
:2017C00089EF91E0AA85BB858D939C93AA85BB850D911C9144E550E0041B150BAA85BB85A1
:2017E0000D931C9387E0A881B9818C9380E0AC81BD818C93AC81BD818C918F5F8C93AC8501
:20180000BD850D911C91222733276894A3E9B7E08C91AE81BF810E94832AAE81BF818C9112
:2018200080958C9387E0A885B9858C9381E0AA81BB818C93AC81BD810C910B3011F00C94B8
:20184000250C85E0AA81BB818C93AC81BD810C910C3011F00C942E0C0C94690CA885B985CD
:201860008C91AE81BF810E94A7320E949D320C900822689409F4E894A881B9818C91AA8506
:20188000BB85AD90BC90A4E2B1E0AA0DBB1D0E94A7320E949D320C9016F0092201C0082A2D
:2018A0000C92AA85BB850E94D927A885B9850E94D527AA81BB818C918F5F8C93AA81BB8178
:2018C0000C91093011F00C942E0CAC85BD850E94D927AC81BD810C910C3011F00C94FA0B58
:2018E000AA85BB850D911C9144E550E0041B150BAA85BB850D931C93A881B9810E94D527D7
:20190000AC85BD850E94D927A881B9810C910F3F11F00C94F60BAA85BB850D911C910130D7
:2019200050E0150711F00C94E60BA3E9B7E08C910E94542A0E945107EE85FF850E94C42AE8
:20194000AE85BF850E94E733082F003081E009F080E08F93A6E2B0E00C9102FB81E00EF4FC
:2019600080E09F91892B882311F40C94C40B89E0481A80E0580A2E9608955A924A9281E0ED
:20198000D2018C9381E00E94E6315A924A9281E0D2018C9381E00E94E6310E94EA072496B9
:2019A00082E00E94D12708955A924A9281E0D2018C9381E00E94E6315A924A9282E0D2015C
:2019C0008C9381E00E94E6310E94EA07249682E00E94D12708955A924A9281E0D2018C93CD
:2019E00081E00E94E6315A924A9283E0D2018C9381E00E94E6310E94EA07249682E00E9445
:201A0000D12708955A924A9281E0D2018C9381E00E94E6315A924A9284E0D2018C9381E07D
:201A20000E94E6310E94EA07249682E00E94D12708955A924A9281E0D2018C9381E00E94E9
:201A4000E6315A924A9285E0D2018C9381E00E94E6310E94EA07249682E00E94D127089550
:201A60005A924A9281E0D2018C9381E00E94E6315A924A9286E0D2018C9381E00E94E631F7
:201A80000E94EA07249682E00E94D1270895000000000000002F00000007000700147F147C
:201AA0007F14242A7F2A12C4C810264636495522500005030000001C2241000041221C0036
:201AC00014083E081408083E080800005030001010101010006060000020100804023E51D5
:201AE00049453E00427F400042615149462141454B311814127F1027454545393C4A49495F
:201B00003001710905033649494936064949291E0036360000005636000008142241001461
:201B20001414141400412214080201510906324959513E7E1111117E7F494949363E414191
:201B400041227F4141221C7F494949417F090909013E4149497A7F0808087F00417F41000B
:201B60002040413F017F081422417F404040407F020C027F7F0408107F3E4141413E7F0918
:201B80000909063E4151215E7F09192946464949493101017F01013F4040403F1F2040201C
:201BA0001F3F4038403F631408146307087008076151494543007F414100552A552A550075
:201BC00041417F0004020102044040404040000102040020545454787F48444438384444D5
:201BE0004420384444487F3854545418087E0901020C5252523E7F0804047800447D4000D4
:201C00002040443D007F1028440000417F40007C041804787C0804047838444444387C1404
:201C2000141408081414187C7C080404084854545420043F4440203C4040207C1C204020DD
:201C40001C3C4030403C44281028440C5050503C4464544C44040204020081E00E94E03174
:201C600084E00E94E03181E00E94E03173E57CBD239A2498259A419A399A88E0A881B981F7
:201C80008C9381E090E00E945728A881B9810E94D527A881B9810C91013011F00C94610EF1
:201CA0007CB571607CBD7CB572607CBD7DB57E7F7DBDA4E9B7E0E8EBF9E60E9417320C94E3
:201CC000DD0E023011F00C94760E7CB57E7F7CBD7CB572607CBD7DB57E7F7DBDA4E9B7E092
:201CE000E6ECF9E60E9417320C94DD0E033011F00C948B0E7CB57E7F7CBD7CB572607CBDAD
:201D00007DB571607DBDA4E9B7E0E2EDF9E60E9417320C94DD0E043011F00C94A00E7CB58A
:201D200071607CBD7CB57D7F7CBD7DB57E7F7DBDA4E9B7E0EEEDF9E60E9417320C94DD0E76
:201D4000053011F00C94B50E7CB571607CBD7CB57D7F7CBD7DB571607DBDA4E9B7E0EAEE10
:201D6000F9E60E9417320C94DD0E063011F00C94CA0E7CB57E7F7CBD7CB57D7F7CBD7DB560
:201D80007E7F7DBDA4E9B7E0E4EFF9E60E9417320C94DD0E073011F00C94DD0E7CB57E7FCF
:201DA0007CBD7CB57D7F7CBD7DB571607DBDA4E9B7E0EEEFF9E60E94173270912401777F60
:201DC0007093240141982D9881E090E00E945728419A81E090E00E94572841980E940926D4
:201DE0005A924A928CEAD2018C9381E00E94E6310E944711229681E00E94D1275A924A9224
:201E000083E5D2018C9381E00E94E6310E944711229681E00E94D1275A924A9280E0D201A6
:201E20008C9381E00E94E6310E944711229681E00E94D12700911201033511F40C94250F07
:201E4000709124017860709324015A924A9280E0D2018C9381E00E94E6310E944711229676
:201E600081E00E94D12780E0AC81BD818C93AC81BD810C91043618F011F00C946D0F0E9474
:201E80005311009114010E3111F40C944C0F7091240178607093240100911501003981E092
:201EA00008F080E08F9300911501083980E010F009F081E09F91892B882311F40C94650F5E
:201EC00070912401786070932401AC81BD818C918F5F8C9310F40C94370FA4E2B1E08C9129
:201EE00083FB81E00EF480E08F93A881B9810C91003081E009F080E09F91892B882311F401
:201F00000C94410E0E942C075A924A9281E0D2018C9381E00E94E6315A924A9281E0D201CC
:201F20008C9381E00E94E6310E94EA07249682E00E94D1275A924A92E4E9F7E0D2010E943E
:201F4000CC338FE00E94E6310E94DA0822968FE00E94D127A4E2B1E08C9183FB16F00C94BD
:201F6000B90FA4E9B7E0E8E0FAE60E9417320C94D110A2E0B8E0E2EAF9E60E941732A2E02F
:201F8000B8E00E94F629A2E0B8E0E4EAF9E60E941732A2E0B8E00E94F6290E947A2EA3E985
:201FA000B7E08C93A2E0B8E0E8E1FAE60E941732A3E9B7E08C91A2E0B8E00E943E2AAA812E
:201FC000BB81E2E0F8E60E94843270912401777F7093240181E0AC81BD818C93AC81BD8133
:201FE0000C91033018F011F00C943D10AA81BB810D911D912D913C91689442E0A3E9B7E09C
:202000008C91ACE1B1E00E94842AACE1B1E00E94B233402F512F622F732FAC81BD81AD90C6
:20202000BB24A3E1B1E0AA0DBB1D0C911127222733270E94F93211F40C94231070912401DA
:20204000786070932401AA81BB810D911D912D913C9142E050E060E070E00E94EF32AA8172
:20206000BB810D931D932D933D93AC81BD818C918F5F8C9310F40C94EE0FAA81BB810D9109
:202080001D912D913C914EE250E060E070E00E94EF32AA81BB810D931D932D933D93A4E287
:2020A000B1E08C9183FB81E00EF480E08F9340E050E060E070E0ACE1B1E00E94B2330E94E8
:2020C000F93281E009F080E09F91892B882311F40C94E50FA4E2B1E08C9183FB16F40C9497
:2020E000C61081E0AC81BD818C93AC81BD810C910F3018F011F00C949B10E89442E0A3E95A
:20210000B7E08C91ACE1B1E00E94842AACE1B1E00E94B233AC81BD81AD90BB24A3E0B1E05D
:20212000AA0DBB1D0C93AC81BD818C918F5F8C9310F40C947510E8944EE0A3E9B7E08C91C9
:20214000A4E9B7E00E94842A70912401726070932401709124017B7F70932401009106010B
:20216000003011F00C94B910709124017D7F7093240100910501003011F00C94C41070913E
:2021800024017460709324010C94CC10A4E9B7E0E0E2FAE60E941732A3E9B7E08C910E940F
:2021A000542A5A924A9281E0D2018C9381E00E94E6315A924A9282E0D2018C9381E00E944D
:2021C000E6310E94EA07249682E00E94D1275A924A92E4E9F7E0D2010E94CC338FE00E94AE
:2021E000E6310E94DA0822968FE00E94D1275A924A9281E0D2018C9381E00E94E6315A9262
:202200004A9283E0D2018C9381E00E94E6310E94EA07249682E00E94D127A4E2B1E08C91F6
:2022200083FB16F00C9438110E943E110E945107A2E9B7E00C9103FB16F00C943311E1E0DE
:20224000F0E00E943B285A924A92D201E0E3FAE60E94173289E00E94E6310E94670B229692
:2022600089E00E94D127A6E2B0E08C9182FBDEF386E0481A80E0580A2696089573E17CBD68
:202280002B982D982C982398259839980895A881B9818C918EBD8DB587FFFDCFA2E1B1E099
:2022A0008EB58C93089581E00E94E03180E0A881B9818C93A881B9810C91023018F011F0EE
:2022C0000C94B8115A924A9280E3D2018C9381E00E94E6310E944711229681E00E94D127B1
:2022E0005A924A9280E0D2018C9381E00E94E6310E944711229681E00E94D1275A924A9235
:20230000AA81BB818C91D2018C9381E00E94E6310E944711229681E00E94D1275A924A92B8
:2023200080E0D2018C9381E00E94E6310E944711229681E00E94D127A881B9818C918F5F16
:202340008C9380911201A881B981AD90BB24A3E1B1E0AA0DBB1D8C93A881B9810E94D527F7
:20236000A881B9818C918F5F8C9310F40C945A1181E0481A80E0580A229608955A924A921F
:2023800080E5D2018C9381E00E94E6310E944711229681E00E94D1275A924A9280E0D20124
:2023A0008C9381E00E94E6310E944711229681E00E94D1275A924A9280E0D2018C9381E0BC
:2023C0000E94E6310E944711229681E00E94D1275A924A9280E0D2018C9381E00E94E63163
:2023E0000E944711229681E00E94D1278091120180931701A4E9B7E0EAE3FAE60E94173225
:20240000A4E9B7E00E943428E7E1F1E00E949933A4E2B1E08C9182FB16F40C945B125A92DF
:202420004A9288E5D2018C9381E00E94E6310E944711229681E00E94D1275A924A9288E06A
:20244000D2018C9381E00E94E6310E944711229681E00E94D1275A924A9280E0D2018C93A9
:2024600081E00E94E6310E944711229681E00E94D1275A924A9280E0D2018C9381E00E9478
:20248000E6310E944711229681E00E94D1278091120180931801A4E9B7E00E943428EEE335
:2024A000FAE60E941732A4E9B7E00E943428E8E1F1E00E949933A4E2B1E08C9181FB16F071
:2024C0000C94AE125A924A9280E5D2018C9381E00E94E6310E944711229681E00E94D127B6
:2024E0005A924A9288E0D2018C9381E00E94E6310E944711229681E00E94D1275A924A922B
:2025000080E0D2018C9381E00E94E6310E944711229681E00E94D1275A924A9280E0D201A7
:202520008C9381E00E94E6310E944711229681E00E94D1278091120180931901A4E9B7E040
:202540000E943428E2E4FAE60E941732A4E9B7E00E943428E9E1F1E00E9499330895A4E997
:20256000B7E0EAE3FAE60E941732A4E9B7E00E943428E4E0F1E00E9499335A924A928CEAC9
:20258000D2018C9381E00E94E6310E944711229681E00E94D1275A924A9280EAD2018C935E
:2025A00081E00E94E6310E944711229681E00E94D1275A924A9280E0D2018C9381E00E9437
:2025C000E6310E944711229681E00E94D1275A924A9280910401D2018C9381E00E94E6314D
:2025E0000E944711229681E00E94D127AEE0B1E08C9199270E945728A4E2B1E08C9182FB60
:2026000016F40C945213A4E9B7E00E943428EEE3FAE60E941732A4E9B7E00E943428E5E006
:20262000F1E00E9499335A924A928CEAD2018C9381E00E94E6310E944711229681E00E945C
:20264000D1275A924A9288EAD2018C9381E00E94E6310E944711229681E00E94D1275A92A3
:202660004A9280E0D2018C9381E00E94E6310E944711229681E00E94D1275A924A9280918C
:202680000501D2018C9381E00E94E6310E944711229681E00E94D127AEE0B1E08C9199277F
:2026A0000E945728A4E2B1E08C9181FB16F00C94A813A4E9B7E00E943428E2E4FAE60E947E
:2026C0001732A4E9B7E00E943428E6E0F1E00E9499335A924A928CEAD2018C9381E00E9457
:2026E000E6310E944711229681E00E94D1275A924A9284EAD2018C9381E00E94E6310E9432
:202700004711229681E00E94D1275A924A9280E0D2018C9381E00E94E6310E9447112296C8
:2027200081E00E94D1275A924A9280910601D2018C9381E00E94E6310E944711229681E09F
:202740000E94D127AEE0B1E08C9199270E94572808955A924A9288E5D2018C9381E00E94FB
:20276000E6310E944711229681E00E94D1275A924A9280E0D2018C9381E00E94E6310E94BF
:202780004711229681E00E94D1275A924A9280E0D2018C9381E00E94E6310E944711229648
:2027A00081E00E94D1275A924A9280E0D2018C9381E00E94E6310E944711229681E00E9435
:2027C000D1278091120180931A01A4E9B7E0E6E4FAE60E941732A4E9B7E00E943428EAE109
:2027E000F1E00E9499330895A4E9B7E0E6E4FAE60E941732A4E9B7E00E943428EBE1F1E085
:202800000E9499335A924A928CEAD2018C9381E00E94E6310E944711229681E00E94D12753
:202820005A924A9280EED2018C9381E00E94E6310E944711229681E00E94D1275A924A92E1
:2028400080E0D2018C9381E00E94E6310E944711229681E00E94D1275A924A9280911B016A
:20286000D2018C9381E00E94E6310E944711229681E00E94D127AEE0B1E08C9199270E9401
:20288000572808955A924A928CEAD2018C9381E00E94E6310E944711229681E00E94D12725
:2028A0005A924A9280E8D2018C9381E00E94E6310E944711229681E00E94D1275A924A9267
:2028C00080E0D2018C9381E00E94E6310E944711229681E00E94D1275A924A9280E0D201E4
:2028E0008C9381E00E94E6310E944711229681E00E94D127A1E1B1E08C9199270E945728E1
:2029000008950E94C727A8E0B1E00C91112722273327A9E0B1E04D915C91662777270E9447
:20292000F431AFE1B1E00D931D932D933D9391E0AFE1B1E00E944732A4E9B7E0EFE1F1E0FF
:202940000E941433A4E9B7E00E943428ECE4FAE60E94173291E0AFE1B1E00E946B32AFE170
:20296000B1E00E94E727A7E0B1E00C9104FB16F00C94D0148FEF9FEFA2E0B1E08D939C936A
:202980005A924A9280E0D2018C9381E00E94E6310E94B51A229681E00E94D1270C94D81453
:2029A000AFE1B1E08D919C91A2E0B1E08D939C93A0E0B1E00E948F32A2E0B1E04D915C91F7
:2029C000A0E0B1E00D911C910417150718F011F00C9426155A924A9280E2D2018C9381E003
:2029E0000E94E6310E949F16229681E00E94D1270E94A3265A924A9288E2D2018C9381E024
:202A00000E94E6310E949F16229681E00E94D1270E94A326A2E9B7E00C9104FB16F00C9424
:202A20001F155A924A9284E0D2018C9381E00E94E6310E94201C229681E00E94D127A0E019
:202A4000B1E00E94D92710F40C94DC14A7E0B1E00C9104FB16F00C945C155A924A9281E0BB
:202A6000D2018C9381E00E94E6310E94B51A229681E00E94D127AFE1B1E00D911D912D91FB
:202A80003C914FEF5FEF60E070E00E94F432AFE1B1E00D931D932D933D93AFE1B1E08D9145
:202AA0009C91A2E0B1E08D939C93709107017F7E709307010C94D814A2E9B7E00C9105FB2B
:202AC00016F00C9465150E94742708950E94C72781E00E94E03181E00E94E03191E0AFE143
:202AE000B1E00E946B32A4E9B7E0E4E5FAE60E941732AFE1B1E00E94E727A7E0B1E00C91C8
:202B000004FB16F00C949A158FEF9FEFA2E0B1E08D939C935A924A9280E0D2018C9381E078
:202B20000E94E6310E94B51A229681E00E94D1270C94A215AFE1B1E08D919C91A2E0B1E0E2
:202B40008D939C93A0E0B1E00E948F32A2E0B1E04D915C91A0E0B1E00D911C910417150741
:202B600018F011F00C9413165A924A9280E2D2018C9381E00E94E6310E949F16229681E0DD
:202B80000E94D1270E940E264091120100911301041711F40C94D115709124017860709395
:202BA00024015A924A9288E2D2018C9381E00E94E6310E949F16229681E00E94D1270E9406
:202BC0000E264091120100911301041711F40C94EE1570912401786070932401A4E2B1E038
:202BE0008C9183FB16F00C94F7150C941316A2E9B7E00C9104FB16F00C940C165A924A9271
:202C000086E0D2018C9381E00E94E6310E94201C229681E00E94D127A0E0B1E00E94D927FE
:202C200010F40C94A615A4E2B1E08C9183FB16F00C946316A0E0B1E08D919C91AFE1B1E0E7
:202C40008D939D9388278D938C93A7E0B1E00C9104FB16F00C943E16AFE1B1E00D911D911B
:202C60002D913C914FEF5FEF60E070E00E94EF32AFE1B1E00D931D932D933D93AFE1B1E0C8
:202C80000D911D912D913C9142E050E060E070E00E94F431AFE1B1E00D931D932D933D93B3
:202CA000A4E9B7E0EAE5FAE60E941732A4E9B7E00E943428EFE1F1E00E94143370910701A1
:202CC0007F7E70930701A7E0B1E00C9104FB16F00C9499165A924A9281E0D2018C9381E067
:202CE0000E94E6310E94B51A229681E00E94D127AFE1B1E00D911D912D913C914FEF5FEF73
:202D000060E070E00E94F432AFE1B1E00D931D932D933D93AFE1B1E08D919C91A2E0B1E0DB
:202D20008D939C93709107017F7E709307010C94A21582E0481A80E0580A249608955A9213
:202D40004A92AA81BB818C91D2018C9381E00E94E6310E944711229681E00E94D1275A926E
:202D60004A9280910101D2018C9381E00E94E6310E944711229681E00E94D1275A924A92E3
:202D800080910001D2018C9381E00E94E6310E944711229681E00E94D1275A924A9280E040
:202DA000D2018C9381E00E94E6310E944711229681E00E94D12708950E94C72781E00E942A
:202DC000E03182E00E94E03191E0AFE1B1E00E946B32A7E0B1E00C9104FB16F00C94061785
:202DE0008FEF9FEFA2E0B1E08D939C935A924A9280E0D2018C9381E00E94E6310E94B51AC0
:202E0000229681E00E94D1270C940E17AFE1B1E08D919C91A2E0B1E08D939C93A2E0B1E059
:202E20000D911C9141E050E0041B150BA881B9810D931C93A0E0B1E00E948F3280E0AA8106
:202E4000BB818C930E940E265A924A9280E4D2018C9381E00E94E6310E940518229681E031
:202E60000E94D127A7E0B1E00C9107FB16F40C943B170E9443180E940E265A924A9288E4FE
:202E8000D2018C9381E00E94E6310E940518229681E00E94D127A7E0B1E00C9107FB16F4F3
:202EA0000C9456170E9443180C94B817AA81BB818C918F5F8C9340910801AA81BB810C912A
:202EC000041781E009F080E08F93A881B9814D915C91A0E0B1E00D911C910417150781E0D9
:202EE00009F080E09F91892B882311F40C94B81780E0AA81BB818C935A924A928CE4D20185
:202F00008C9381E00E94E6310E944711229681E00E94D1275A924A9280910101D2018C93FE
:202F200081E00E94E6310E944711229681E00E94D1275A924A9280910001D2018C9381E09D
:202F40000E94E6310E944711229681E00E94D1275A924A9280E0D2018C9381E00E94E631D7
:202F60000E944711229681E00E94D1270E944318A0E0B1E00E94D927A2E0B1E04D915C9116
:202F8000A0E0B1E00D911C910417150711F00C942217A7E0B1E00C9104FB16F00C94FF1754
:202FA0005A924A9281E0D2018C9381E00E94E6310E94B51A229681E00E94D127AFE1B1E097
:202FC0000D911D912D913C914FEF5FEF60E070E00E94F432AFE1B1E00D931D932D933D9335
:202FE000AFE1B1E08D919C91A2E0B1E08D939C93709107017F7E709307010C940E1783E0CA
:20300000481A80E0580A249608955A924A92AA81BB818C91D2018C9381E00E94E6310E943B
:203020004711229681E00E94D1275A924A9280910101D2018C9381E00E94E6310E944711A4
:20304000229681E00E94D1275A924A9280910001D2018C9381E00E94E6310E944711229625
:2030600081E00E94D1275A924A9280911301D2018C9381E00E94E6310E944711229681E049
:203080000E94D1270895A7E0B1E00C9106FB81E00EF480E08F93009113010F3F81E009F011
:2030A00080E09F91892B882311F40C945F18AFE0B1E08C9199270E9457280C949C18A2E908
:2030C000B7E00C9104FB16F00C9474185A924A9284E0D2018C9381E00E94E6310E94201C75
:2030E000229681E00E94D127A7E0B1E00C9105FB16F00C9493185A924A9288E2D2018C93F3
:2031000081E00E94E6310E949F16229681E00E94D1274091130100911201041711F00C9446
:203120007B180C949C180E94E71BA2E1B1E00C9100FB16F40C94931808950E94C727ABE04B
:20314000B1E00D911127ACE0B1E04D915C910E94EA31A2E0B1E00D931C93A4E9B7E0E2E01B
:20316000F1E00E940C33A4E9B7E00E943428ECE4FAE60E941732A2E0B1E00E94E027A0E0A4
:20318000B1E00E948F32A2E0B1E04D915C91A0E0B1E00D911C910417150718F011F00C9421
:2031A000F1180E9466190E94A326A2E9B7E00C9104FB16F00C94EA185A924A9284E0D20115
:2031C0008C9381E00E94E6310E94201C229681E00E94D127A0E0B1E00E94D92710F40C94CE
:2031E000C318A2E9B7E00C9105FB16F00C94FA180E94742708950E94C727AFE1B1E08D91D4
:203200009C91A2E0B1E08D939C93A4E9B7E0E4E5FAE60E941732A2E0B1E00E94E027A0E02B
:20322000B1E00E948F32A2E0B1E04D915C91A0E0B1E00D911C910417150718F011F00C9480
:2032400065190E9466190E940E264091120100911301041711F40C94321970912401786067
:2032600070932401A4E2B1E08C9183FB16F00C944919A4E9B7E0EAE5FAE60E941732A4E921
:20328000B7E00E943428E0E0F1E00E940C330C946519A2E9B7E00C9104FB16F00C945E192E
:2032A0005A924A9286E0D2018C9381E00E94E6310E94201C229681E00E94D127A0E0B1E032
:2032C0000E94D92710F40C94131908955A924A9280EAD2018C9381E00E94E6310E944711A7
:2032E000229681E00E94D1275A924A9280910101D2018C9381E00E94E6310E944711229682
:2033000081E00E94D1275A924A9280910001D2018C9381E00E94E6310E944711229681E0B9
:203320000E94D1275A924A9280E0D2018C9381E00E94E6310E944711229681E00E94D12712
:2033400008950E94C72781E00E94E03182E00E94E031AFE1B1E08D919C91A2E0B1E08D9378
:203360009C93A2E0B1E00D911C9141E050E0041B150BA881B9810D931C93A0E0B1E00E94CB
:203380008F3280E0AA81BB818C930E940E26A7E0B1E00C9103FB16F40C94E0195A924A9292
:2033A00080ECD2018C9381E00E94E6310E940518229681E00E94D1270E94671A0C94501AF6
:2033C000AA81BB818C918F5F8C935A924A9281ECD2018C9381E00E94E6310E9405182296A4
:2033E00081E00E94D12740910B01AA81BB810C91041781E009F080E08F93A881B9814D91B9
:203400005C91A0E0B1E00D911C910417150781E009F080E09F91892B882311F40C94501AD4
:2034200080E0AA81BB818C935A924A9282ECD2018C9381E00E94E6310E944711229681E051
:203440000E94D1275A924A9280910101D2018C9381E00E94E6310E944711229681E00E9436
:20346000D1275A924A9280910001D2018C9381E00E94E6310E944711229681E00E94D127C1
:203480005A924A9280E0D2018C9381E00E94E6310E944711229681E00E94D1270E94671A28
:2034A000A0E0B1E00E94D927A2E0B1E04D915C91A0E0B1E00D911C910417150711F00C9447
:2034C000C51983E0481A80E0580A24960895A7E0B1E00C9102FB81E00EF480E08F93009108
:2034E00013010F3F81E009F080E09F91892B882311F40C94831AA0E1B1E08C9199270E944E
:2035000057280C94B41AA2E9B7E00C9104FB16F00C94981A5A924A9284E0D2018C9381E029
:203520000E94E6310E94201C229681E00E94D127A7E0B1E00C9101FB16F00C94AB1A0E9483
:2035400066194091130100911201041711F00C949F1A0C94B41A0E94E71BA2E1B1E00C912B
:2035600000FB16F40C94AB1A08955A924A928DE4D2018C9381E00E94E6310E94471122964D
:2035800081E00E94D1275A924A9280E0D2018C9381E00E94E6310E944711229681E00E9447
:2035A000D1275A924A92AA81BB818C91D2018C9381E00E94E6310E944711229681E00E9406
:2035C000D1275A924A9280E0D2018C9381E00E94E6310E944711229681E00E94D127089575
:2035E00084E00E94E03181E00E94E031AFE1B1E00E94913200919007013011F00C941B1BEA
:20360000A9E0B1E00D911C9122273327A8E0B1E04C915527662777270E94F431AA81BB81D7
:203620000D931D932D933D9391E0AA81BB810E9447320C94351B00919007023011F00C94CC
:20364000351BACE0B1E00D911C9122273327ABE0B1E04C915527662777270E94F431AA817D
:20366000BB810D931D932D933D93A2E9B7E00C9105FB16F40C94441BA3EAB7E0EFE1F1E0A1
:203680000E94C82A0C94B01BACE1B1E0E4E6FAE60E941732E89441E0A3E9B7E08C91ACE10E
:2036A000B1E00E94842AACE1B1E0E6E6FAE60E94ED3311F00C94441BE89442E0A3E9B7E0DC
:2036C0008C91ACE1B1E00E94842AACE1B1E00E94B233A881B9810C93AFE1B1E00D911D914B
:2036E0002D913C91A881B9814C915527662777270E94EF32AFE1B1E00D931D932D933D9394
:20370000E89442E0A3E9B7E08C91ACE1B1E00E94842AE89442E0A3E9B7E08C91ACE1B1E061
:203720000E94842AE89442E0A3E9B7E08C91ACE1B1E00E94842AACE1B1E0E8E6FAE60E947F
:20374000ED3311F00C94441BA3E9B7E08C910E94542AA3E9B7E08C91A3EAB7E00E943E2A7B
:20376000AA81BB814D915D916D917C91AFE1B1E00D911D912D913C91041715072607370771
:2037800018F011F00C94C61B0C94D31BA4E9B7E0ECE6FAE60E94173270912401786070934F
:2037A00024010C94E11BA4E9B7E0EFE1F1E00E941433A4E9B7E00E943428ECE4FAE60E9426
:2037C000173285E0481A80E0580A249608955A924A9280EFD2018C9381E00E94E6310E94DB
:2037E0004711229681E00E94D1275A924A9280E0D2018C9381E00E94E6310E9447112296D8
:2038000081E00E94D1275A924A9280E0D2018C9381E00E94E6310E944711229681E00E94C4
:20382000D1275A924A9280E0D2018C9381E00E94E6310E944711229681E00E94D127089512
:2038400081E00E94E03182E00E94E031A2E0B1E00D911C9144E550E00E941A28A881B98141
:203860004D935C93A0E0B1E00D911C91A881B9814D915C910E941A28A881B9814D935C93D9
:20388000A881B9818C91AA81BB818C9340911A01AA81BB810C91041711F40C94C51CAA8166
:2038A000BB818C9180931A01AA81BB818C918F5F8C93AC81BD810C91043081E009F080E0FA
:2038C0008F9300919107033081E009F080E09F91892B882311F40C94991C5A924A92AC81D2
:2038E000BD818C91D2018C9381E00E94E6315A924A9289E1D2018C9381E00E94E6315A9237
:203900004A92A885B9858C91D2018C9381E00E94E6315A924A9280E2D2018C9381E00E9418
:20392000E6310E94BA09289684E00E94D1270C94C31C5A924A92AC81BD818C91D2018C938E
:2039400081E00E94E6315A924A9289E2D2018C9381E00E94E6315A924A92A885B9858C91BE
:20396000D2018C9381E00E94E6315A924A9280E3D2018C9381E00E94E6310E94BA092896E1
:2039800084E00E94D1270E94510783E0481A80E0580A249608950F921F922F923F924F928C
:2039A0005F927F92AF92BF920F931F932F933F934F935F936F937F938F939F93AF93BF93BB
:2039C000CF93DF93EF93FF938FB78F938F918FBFFF91EF91DF91CF91BF91AF919F918F9169
:2039E0007F916F915F914F913F912F911F910F91BF90AF907F905F904F903F902F901F905F
:203A00000F90189581E00E94E0310091910741E0040FA881B9810C935A924A928CE0D201E0
:203A20008C9381E00E94E6315A924A92AC81BD818C91D2018C9381E00E94E6310E94EA075E
:203A4000249682E00E94D127A1E9B7E08C91A2E9B7E00E94A7320E949D320C9008226894A2
:203A600009F4E89416F00C94531D5A924A92D201ECE7FAE60E94173284E00E94E6310E94BF
:203A8000DA08229684E00E94D127A1E9B7E08C91A2E9B7E00E94A7320E949D328C91892379
:203AA0008C930C946F1D5A924A92D201E0E8FAE60E94173283E00E94E6310E94DA08229635
:203AC00083E00E94D127A1E9B7E08C91A2E9B7E00E94A7320E949D329C91982B9C930E94DC
:203AE000092681E0481A80E0580A2296089500E01CE20F931F9300917C00007F0E600093FE
:203B00007C000E941D32482F592F1F910F910E941A28A0E0B1E04D935C93A0EBB7E0E0E043
:203B2000F1E00E940C33E0EBF7E0A2E0B8E00E94CC33E2E0F8E0A0EBB7E01127222702E057
:203B400031E00E94B132E0EBF7E0A4E9B7E00E94CC33A4E9B7E00E943428E4E8FAE60E94F8
:203B600017325A924A928BE0D2018C9381E00E94E6315A924A9281E0D2018C9381E00E949F
:203B8000E6310E94EA07249682E00E94D1275A924A92E4E9F7E0D2010E94CC338FE00E94D4
:203BA000E6310E94DA0822968FE00E94D12708958DE00E94E031E3EAF7E0A881B9810E9443
:203BC000CC330E94C322A4E2B1E08C9183FB16F00C94EC1D0C94AB1F0E942D0EA4E2B1E0A0
:203BE0008C9183FB16F00C94F71D0C94AB1FA2E0B8E0E2EAF9E60E941732A2E0B8E00E949A
:203C0000F629A881B9810E94F6290E947A2EA3E9B7E08C93A3E9B7E08C91A3EAB7E00E94CF
:203C20003E2A00919007013011F00C947B1E5A924A92D201E6E8FAE60E9417328DE00E9446
:203C4000E6310E94DA0822968DE00E94D1270E94F01AA4E2B1E08C9183FB16F40C94791E6B
:203C6000A2E9B7E00C9102FB16F00C94391E0E9442140E94DC160E94020D70912401706454
:203C8000709324015A924A92E4E9F7E0D2010E94CC338FE00E94E6310E94DA0822968FE049
:203CA0000E94D1270E94190DA2E9B7E00C9101FB16F00C94791E5A924A92D201E4E9FAE662
:203CC0000E9417328EE00E94E6310E94DA0822968EE00E94D127A3E9B7E08C910E94542A2E
:203CE000A3E9B7E08C91A3EAB7E00E943E2A0E9466150C94581F023011F00C94DA1E5A926B
:203D00004A92D201E2EAFAE60E9417328EE00E94E6310E94DA0822968EE00E94D1270E9450
:203D2000F01AA4E2B1E08C9183FB16F40C94D81E0E94A1190E94020D70912401706470931D
:203D400024015A924A92E4E9F7E0D2010E94CC338FE00E94E6310E94DA0822968FE00E94E9
:203D6000D127A2E9B7E00C9101FB16F00C94D81E0E94190D5A924A92D201E0EBFAE60E9444
:203D800017328FE00E94E6310E94DA0822968FE00E94D127A3E9B7E08C910E94542AA3E981
:203DA000B7E08C91A3EAB7E00E943E2A0E94FB180C94581F033011F00C941A1F5A924A9280
:203DC000D201E0ECFAE60E9417328DE00E94E6310E94DA0822968DE00E94D1270E948925C0
:203DE0000E94AF120E94020D5A924A92E4E9F7E0D2010E94CC338FE00E94E6310E94DA0823
:203E000022968FE00E94D1270E94190D5A924A92D201EAE7F9E60E9417328CE00E94E631BE
:203E20000E94DA0822968CE00E94D1270E94BE110C94581F043011F00C94581F5A924A92A4
:203E4000D201EEECFAE60E9417328DE00E94E6310E94DA0822968DE00E94D1270E94E825D2
:203E60000E94F4130E94020D5A924A92E4E9F7E0D2010E94CC338FE00E94E6310E94DA085C
:203E800022968FE00E94D1270E94190D5A924A92D201E6E9F9E60E9417328CE00E94E63140
:203EA0000E94DA0822968CE00E94D1270E94A913A2E9B7E00C9101FB16F00C94761F0E94CA
:203EC000300D709124017064709324015A924A92E4E9F7E0D2010E94CC338FE00E94E6317B
:203EE0000E94DA0822968FE00E94D127A3E9B7E08C910E94542A0E945107A4E2B1E08C91EF
:203F000083FB81E00EF080E08F93A2E9B7E00C9103FB81E00EF080E09F918923882311F43A
:203F20000C94A61FE1E0F0E00E943B285A924A92D201ECEDFAE60E94173289E00E94E63125
:203F40000E94670B229689E00E94D127A6E2B0E08C9182FBDEF30E943E1170912401706226
:203F60007093240180E0809391078DE0481A80E0580A229608950E94C72781E00E94E03184
:203F800084E00E94E0310E942C070E942D0EA4E2B1E08C9183FB16F00C94D01F0C94EC2065
:203FA000A2E0B8E0E2EAF9E60E941732A2E0B8E00E94F629A3EAB7E00E94F62980E0AA8106
:203FC000BB818C93AA81BB818C918F5F8C93A3EAB7E0EA81FB810E9420330091900702309B
:203FE00018F011F00C94F61F0C940020A3EAB7E00E943428E6EEFAE60E9417320C941920A9
:20400000A2E9B7E00C9105FB16F40C941120A3EAB7E00E943428ECEEFAE60E9417320C949F
:204020001920A3EAB7E00E943428E2EFFAE60E941732A3EAB7E0E881F9810E94C82A40E0CE
:2040400050E060E070E0A881B9810D911D912D913C910E94F93211F00C94E21F0E947A2EAD
:20406000A3E9B7E08C93A3E9B7E08C91A3EAB7E00E943E2A00919007013011F00C94542022
:204080005A924A92D201E8EFFAE60E9417328CE00E94E6310E94DA0822968CE00E94D1277C
:2040A0000E9481140C949E20023011F00C946C205A924A92D201E4E0FBE60E9417328DE074
:2040C0000E94E6310E94DA0822968DE00E94D1270E949D180C949E20033011F00C948620B5
:2040E0005A924A92D201EAE7F9E60E9417328CE00E94E6310E94DA0822968CE00E94D12723
:204100000E94BE110E94BA250C949E20043011F00C949E205A924A92D201E6E9F9E60E94D1
:2041200017328CE00E94E6310E94DA0822968CE00E94D1270E94A9130E94F9250E94020D00
:20414000709124017064709324015A924A92E4E9F7E0D2010E94CC338FE00E94E6310E9493
:20416000DA0822968FE00E94D1270E94190D5A924A92D201E2E1FBE60E9417328FE00E9499
:20418000E6310E94DA0822968FE00E94D1270E94300D709124017064709324015A924A92FA
:2041A000E3EAF7E0D2010E94CC338DE00E94E6310E94DA0822968DE00E94D127A3E9B7E05B
:2041C0008C910E94542A0E943E110E945107A6E2B0E08C9182FBDEF3709124017062709339
:2041E000240180E08093910785E0481A80E0580A249608958DE00E94E0318FE00E94E0316D
:20420000E3EAF7E0AA81BB810E94CC330E94C322A4E2B1E08C9183FB16F00C9411210C9441
:20422000B5220E942D0EA4E2B1E08C9183FB16F00C941C210C94B522A2E0B8E0E2EAF9E6F9
:204240000E941732A2E0B8E00E94F629AA81BB810E94F6290E947A2EA3E9B7E08C93A3E958
:20426000B7E08C91A3EAB7E00E943E2A00919007013011F00C9476215A924A92D201E4E963
:20428000FAE60E9417328EE00E94E6310E94DA0822968EE00E94D1270E94F01AE4E9F7E098
:2042A000A881B9810E94CC33A4E2B1E08C9183FB16F40C945D210E9466150E94020D709151
:2042C00024017064709324015A924A92EA81FB81D2010E94CC338FE00E94E6310E94DA08EE
:2042E00022968FE00E94D1270C946C22023011F00C94B4215A924A92D201E0EBFAE60E943F
:2043000017328FE00E94E6310E94DA0822968FE00E94D1270E94F01AE4E9F7E0A881B98134
:204320000E94CC33A4E2B1E08C9183FB16F40C949B210E94FB180E94020D70912401706464
:20434000709324015A924A92EA81FB81D2010E94CC338FE00E94E6310E94DA0822968FE03F
:204360000E94D1270C946C22033011F00C9429225A924A92D201E2E2FBE60E9417328EE0BD
:204380000E94E6310E94DA0822968EE00E94D1270E9489250E94BE110E94020D5A924A92E6
:2043A000E4E9F7E0D2010E94CC338FE00E94E6310E94DA0822968FE00E94D127A4E9B7E054
:2043C000E4E5FAE60E94173281E090E0A0E0B1E08D939C93A0E0B1E00D911C91033050E059
:2043E000150718F011F00C942722A0E0B1E0AD90BC90A6E1B1E0AA0DBB1D4C91A0E0B1E080
:20440000AD90BC90A3E0B1E0AA0DBB1D0C91041711F40C94202270912401786070932401AB
:20442000A4E9B7E0E0E3FBE60E941732A4E9B7E00E943428E0E0F1E00E940C330C9427224C
:20444000A0E0B1E00E94D92710F40C94EA210C946C22043011F00C946C225A924A92D201CE
:20446000E8E3FBE60E9417328EE00E94E6310E94DA0822968EE00E94D1270E94E8250E94E9
:20448000A9130E94020D5A924A92E4E9F7E0D2010E94CC338FE00E94E6310E94DA0822966B
:2044A0008FE00E94D127A4E9B7E0E4E5FAE60E94173240911A0100911B01041711F40C94E2
:2044C0006C22A4E9B7E0E6E4FBE60E941732709124017860709324010E94190D5A924A92DE
:2044E000E4E9F7E0D2010E94CC338FE00E94E6310E94DA0822968FE00E94D127A3E9B7E014
:204500008C910E94542A0E943E110E945107A4E2B1E08C9183FB81E00EF080E08F93A2E955
:20452000B7E00C9103FB81E00EF080E09F918923882311F40C94B022E1E0F0E00E943B28F6
:204540005A924A92D201ECEDFAE60E94173289E00E94E6310E94670B229689E00E94D1272B
:20456000A6E2B0E08C9182FBDEF37091240170627093240180E0809391078CE1481A80E05E
:20458000580A2496089570912401777F7093240181E00E94E03181E00E94E03181E00E94F3
:2045A000E03181E0AA81BB818C93A2E0B8E0E2EAF9E60E941732A2E0B8E00E94F629A3EAEB
:2045C000B7E00E94F6290E942C0780E0AC81BD818C93AA81BB810C91063010F00C94302397
:2045E00086E0A881B9818C9300919007023018F011F00C94FD220C940B23A2E0B8E0ECE4F9
:20460000FBE60E941732A2E0B8E0E0EBF7E00E949C2A0C942C23A2E9B7E00C9105FB16F4F2
:204620000C942023A2E0B8E0E2E5FBE60E941732A2E0B8E0E0EBF7E00E949C2A0C942C23D7
:20464000A2E0B8E0E8E5FBE60E941732A2E0B8E0E0EBF7E00E949C2A81E0AC81BD818C9398
:2046600081E0AA81BB818C93AC81BD818C918F5F8C93EC81FD81019111274DE050E00E940A
:20468000EA31E3EAF7E0E00FF11F0E94C42AAC81BD810D9111274DE050E00E94EA31A3EAE4
:2046A000B7E0A00FB11F0E94E733082F003011F00C946423AC81BD810C9141E0041BA88128
:2046C000B9810C930C946B23AC81BD810C91063011F00C943423A881B9810C91063010F067
:2046E0000C948E23AC81BD810D9111274DE050E00E94EA31A3EAB7E0A00FB11FE4E6FAE6C1
:204700000E941732AC81BD818C918F5F8C93AC81BD810C91073011F00C947223A0EBB7E082
:204720000E94E733082F003011F00C94CB235A924A9283E0D2018C9381E00E94E6315A92A4
:204740004A9281E0D2018C9381E00E94E6310E94EA07249682E00E94D127709124017064CD
:20476000709324015A924A92D201EEE5FBE60E9417328AE00E94E6310E94DA0822968AE00E
:204780000E94D1270E945107709124017860709324010C94D02370912401706270932401AC
:2047A00034990C94E223A6E2B0E08C9184FBDEF7AA81BB818C918F5F8C9370912401706275
:2047C0007093240133990C94FE23A6E2B0E08C9183FBDEF7AA81BB810E94D527AA81BB8130
:2047E0000C91003011F00C94F92381E0AA81BB818C9370912401706270932401A4E2B1E011
:204800008C9185FB16F00C948524709124017F7D7093240181E0AC81BD818C935A924A92AF
:2048200081E0D2018C9381E00E94E6315A924A92A885B9858C91D2018C9381E00E94E631AF
:204840000E94EA07249682E00E94D1275A924A92EE81FF81019111274DE050E00E94EA3174
:20486000E3EAF7E0E00FF11FD2010E94CC338DE00E94E6310E94DA0822968DE00E94D127B8
:20488000AC81BD818C918F5F8C93AC81BD810C91073011F00C940E245A924A9281E0D20175
:2048A0008C9381E00E94E6315A924A92AE81BF818C91D2018C9381E00E94E6310E94EA07CC
:2048C000249682E00E94D127709124017064709324015A924A92EC81FD81019111274DE056
:2048E00050E00E94EA31E3EAF7E0E00FF11FD2010E94CC338DE00E94E6310E94DA08229652
:204900008DE00E94D1270E94510735990C949C24EA81FB81019111274DE050E00E94EA319D
:20492000E3EAF7E0E00FF11FA3EAB7E00E94CC3389E0AA81BB818C9332990C94A82488E081
:20494000AA81BB818C9370912401786070932401A881B9814C91AA81BB810C91041718F044
:2049600011F00C94B5240C94D023AA81BB810C91073018F011F00C94BF240C94E3220E941C
:204980002C0783E0481A80E0580A2696089581E00E94E03181E00E94E031A2E0B8E0E2EAF6
:2049A000F9E60E941732A2E0B8E00E94F629A2E0B8E0E4EAF9E60E941732A2E0B8E00E94E4
:2049C000F6290E947A2EA3E9B7E08C93A2E0B8E0E8E6FBE60E941732A3E9B7E08C91A2E0B6
:2049E000B8E00E943E2A88E0A881B9818C93A881B9810E94D527AC81BD810C91003011F0F1
:204A00000C942725E89441E0A3E9B7E08C91ACE1B1E00E94842AACE1B1E00E946A33AA81D7
:204A2000BB810C93AA81BB818C9180FBA881B9818C91A2E9B7E00E94A7320E949D320C9072
:204A400016F0092201C0082A0C920C944525A881B9818C91A2E9B7E00E94A7320E949D32FC
:204A60000C900822689409F4E894ACE1B1E00E94AD328D9388278C93E89441E0A3E9B7E0AE
:204A80008C91ACE1B1E00E94642AA881B9810C91003011F00C94F724E89442E0A3E9B7E0FE
:204AA0008C91ACE1B1E00E94842AE89442E0A3E9B7E08C91ACE1B1E00E94842AACE1B1E001
:204AC0000E94B233A4E1B1E00C93E89442E0A3E9B7E08C91ACE1B1E00E94842AE89442E0B0
:204AE000A3E9B7E08C91ACE1B1E00E94842AACE1B1E00E94B233A5E1B1E00C93A3E9B7E08A
:204B00008C910E94542A82E0481A80E0580A24960895E89442E0A3E9B7E08C91ACE1B1E07F
:204B20000E94842AACE1B1E00E94B233A4E0B1E00C93E89442E0A3E9B7E08C91ACE1B1E0D0
:204B40000E94842AACE1B1E00E94B233A5E0B1E00C93E89442E0A3E9B7E08C91ACE1B1E0AF
:204B60000E94842AACE1B1E00E94B233A6E0B1E00C930895ACE1B1E0E7E1F1E00E949933C8
:204B8000E89442E0A3E9B7E08C91ACE1B1E00E94642AACE1B1E0E8E1F1E00E949933E89447
:204BA00042E0A3E9B7E08C91ACE1B1E00E94642AACE1B1E0E9E1F1E00E949933E89442E080
:204BC000A3E9B7E08C91ACE1B1E00E94642A0895E89442E0A3E9B7E08C91ACE1B1E00E940C
:204BE000842AACE1B1E00E94B233ABE1B1E00C930895ACE1B1E0EAE1F1E00E949933E89465
:204C000042E0A3E9B7E08C91ACE1B1E00E94642A089582E390E00E9457280895A2E9B7E092
:204C20000C9105FB16F00C949A264091180100911701041711F00C948326ACE1B1E0E4E691
:204C4000FAE60E941732E89441E0A3E9B7E08C91ACE1B1E00E94842AACE1B1E0E6E6FAE674
:204C60000E94ED3311F00C941D26E89442E0A3E9B7E08C91ACE1B1E00E94842AACE1B1E024
:204C80000E94B233A8E1B1E00C93E89442E0A3E9B7E08C91ACE1B1E00E94842AACE1B1E06A
:204CA0000E94B233A1E0B1E00C93E89442E0A3E9B7E08C91ACE1B1E00E94842AACE1B1E052
:204CC0000E94B233A0E0B1E00C9300919007013011F00C94702691E0A0E0B1E00E94603257
:204CE000E89442E0A3E9B7E08C91ACE1B1E00E94842AACE1B1E00E94B233A9E1B1E00C9309
:204D000080E080931701A7E1B1E08C918F5F8C93E89442E0A3E9B7E08C91ACE1B1E00E9427
:204D2000842AACE1B1E00E94B233A3E1B1E00C930C94A226E894A3E9B7E08C91A3E1B1E033
:204D40000E94832A089582E00E94E031A2E9B7E00C9105FB16F00C94662700911701003087
:204D600011F00C9422278AE390E0A881B9818D939C9341E050E0A3E9B7E08C91A881B981C6
:204D8000E8940E94652A82E390E3A881B9818D939C93E894A3E9B7E08C91A881B9810E941B
:204DA000612A00919007013011F00C94DC2691E0A0E0B1E00E943C32ACE1B1E0E1E0F1E02A
:204DC0000E949933E89442E0A3E9B7E08C91ACE1B1E00E94642AACE1B1E0E0E0F1E00E94E8
:204DE0009933E89442E0A3E9B7E08C91ACE1B1E00E94642A00EE40910101041BA8E1B1E0C1
:204E00000C930091180140910001041BA8E1B1E00C9300919007013011F00C94142791E0F9
:204E2000A0E0B1E00E94603280E390E3A881B9818D939C93E894A3E9B7E08C91A881B98186
:204E40000E94612AACE1B1E0E2E1F1E00E949933E89442E0A3E9B7E08C91ACE1B1E00E9467
:204E6000642A0091180140911201041BA8E1B1E00C93A7E1B1E08C918F5F8C930091170152
:204E8000003211F00C946427ACE1B1E0E8E1F1E00E949933E89442E0A3E9B7E08C91ACE123
:204EA000B1E00E94642A8DE09AE0A881B9818D939C93E894A3E9B7E08C91A881B9810E94D7
:204EC000612A80E0809317010C946E27E894A3E9B7E08C91A2E1B1E00E94632A82E0481AC4
:204EE00080E0580A2296089582E00E94E0318AE390E3A881B9818D939C93E894A3E9B7E055
:204F00008C91A881B9810E94612A80E390E3A881B9818D939C93E894A3E9B7E08C91A88177
:204F2000B9810E94612AE894A3E9B7E08C91A881B9810E94612AE894A3E9B7E08C91A881D9
:204F4000B9810E94612A81E396E4A881B9818D939C93E894A3E9B7E08C91A881B9810E9499
:204F6000612A86E490E0A881B9818D939C9341E050E0A3E9B7E08C91A881B981E8940E9408
:204F8000652A82E0481A80E0580A2296089580E08093170180E0809318010895481A590A2E
:204FA0000895481A8827580A08958C9181508C930895ED91FC91EF5FFF4FFC93EE93089546
:204FC000ED91FC91E150F040FC93EE9308950D911D912D913C9101501040204030403C93A1
:204FE0002E931E930E93089509D00E94EA3100FC10D0089503D01ED001F8F9CF0024E894D0
:2050000057FF02C009D0689400F80BD010F80124089502D009D00895509540954F5F5F4FA8
:205020000895E89417FF0895009510950F5F1F4F68940895352F242FE894452B11F4689451
:205040000895512F402F0027112780E1440F551F001F111F021B130B416018F4020F131FC3
:205060004E7F8A9599F708958F938D918823E9F711978F91089588EE93E019D03197D9F77D
:2050800008953197F1F70895259A24982C9A239A229A2A9A84E58CBD08952A9808952A9A36
:2050A0000895689462F80895E89462F80895EF93FF93EE27E82BE92B31F0E0EAFFE031970B
:2050C000F1F70197D1F7FF91EF9108952E9846D0072F44D0062F42D0052F40D0042F3ED0E9
:2050E0001F932F93112725E0E89435D00F3F21F411502040D1F768942F911F910023089566
:205100002E9A1AE028D01A95E9F72E9800E426D024D023D022D021D005E920D014E6E0DF45
:20512000013021F01A95D9F791EE7DC077C01AE02E9801E413D011D010D00FD00ED0D0DF06
:2051400049F06CD082E390E00E9457281A9581F792EE69C063C00FEF01C000270093C600B2
:205160000090C00007FEFCCF0091C600089544275D916D917D91550F661F771F089545D085
:20518000F6DF01E5A3DF11F093EE4DC0A9DF0E3F11F095EE48C092E08827DDDF01930197D9
:2051A000E1F7D9DFD8DF3AC030D0E1DF08E58EDF11F094EE38C0CFDF0EEFD0DF92E088279E
:2051C0000191CCDF0197E1F7C6DFC5DFC4DF0F710093230311272FEF31D0BDDF002329F4CA
:2051E00011502040C9F796EE1EC018C00E9444280CD086DF08F408959ACF07D081CF05D0A7
:2052000081E00EC002D098EE13C09927889490932003909322039093210308952E9A9BDFA4
:2052200099278894089504D02E9A95DF0894089590932003009322030894089595E39A95CE
:20524000F1F70895E4E2F3E0ACE6B4E0992791931197E9F70895E894843059F0863049F099
:20526000803039F068948B3021F08C3011F093E11FC30090260300F8009226038894089555
:20528000E4E7F5E099D245555A4A09F4089510C38A93D8DF44D3C0F091E1F2DFA8F08881D9
:2052A0008823F9F0E4E3F5E08A9511F07096FCCF80818F7721F434968081CDDF38F4888105
:2052C000823078F093E1F4C22196F2C2809325033496A1E7B3E08DD222D388F392E1D0DF0E
:2052E00098F38991E1E8F3E067D24050524094E1F9F4A4E8B3E05DD2A1E7B3E030D226D24D
:20530000A7E2B3E040D2ACE8B3E051D24050504019F4AAE9B3E02DD2ECE2F3E03ED2809101
:20532000860380932B0396E1882311F0833008F0BFC20ED281FD0CD2A0E3B3E024D2A7E87D
:20534000B3E037D2A4E3B3E03AD284E048D2FED1A6E3B3E018D2A1E7B3E00BD20E94F43278
:2053600034D2E9E8F3E01ED20050104019F4E6E9F3E0FAD10E94F4328091830380933A03CA
:2053800095E18823A9F28695F0F791F624D1D8D1ABE3B3E0F8D10090260300FA8091250354
:2053A000882379F4E89486E00F5F164F2040304010F068948BE880932503992790F990933A
:2053C00026033EF4A2EAB3E0CAD11AD1A0E3B3E0DAD182E080933F03A0E3B3E0C0D1A7E423
:2053E000B3E0D1D1ADE4B3E0CED16AC28C918E32C9F4A7E4B3E0B3D19BD2B09680818E32D9
:20540000B9F50090260300FA22273327028D138D16F424893589DED119F4A0E3B3E01BC037
:20542000EFD01AC08C35C9F3B8D309F045C2DAD2F0F083858F7CF1F40090260322273327EB
:20544000028D138D00FE02C024893589D9D070D270F0A1E7B3E083D1A7E4B3E094D1ADE424
:20546000B3E091D1ABE4B3E066D1ACD129C2089595E31EC296E31CC23DD468F08ED349F423
:205480008F9390E249D48F9138F4923419F490E204C012C20894882708958F9397D48F919D
:2054A00008F00EC28827089513D430F0FA93EA932AD408F004C20AC2089548E005C044E091
:2054C00003C042E001C041E0552702D4A8F090E208D690F0FA93EA9356F45F934F93BF93D1
:2054E000AF9341D6AF91BF914F915F9120F00E94593108F0E4C1EAC1089548E005C044E0C1
:2055000003C042E001C041E05527E2D3A0F090E2E8D588F0FA93EA9356F45F934F93BF93E2
:20552000AF9321D6AF91BF914F915F9118F078D608F0C5C1CBC10895FF93EF932ED352D29C
:2055400058F0FF93EF93E3E6F3E0A1E5B3E08CE051D1EF91FF918894AF91BF9130F488271D
:205560008C93923409F4ACC1089547D30E94D23311978EE28D9347D30E94D233EFE6F3E0DD
:20558000ADE5B3E086E036C1FF93EF93EDD2E4CFFF93EF9324D203C0FF93EF93CFD2AF9141
:2055A000BF9118F4C8D0EFD0089545C3802FC8D090913603891B982F8395892790913A0361
:2055C000892311F488940895C5D005D02ED008F4089516D0F7CFE6E3F3E0D0D00E94F432B0
:2055E00072F080913A0380FD06C036952795179507958695F8CF0E5F1F4F2F4F3F4F089583
:2056000080913A03025010402040304080FD06C0000F111F221F331F8695F8CFE6E3F3E037
:20562000ADD00C94EF320ED1D6DFA7E2B3E0A1D00090260300FE04C0000F111F221F331FBE
:205640000F93012F122F232F33270E94EF326CD18F91E8F00090260300FA9927880F991FD1
:20566000E80FF91F222733270191119136F4219131913F7032976FEF7FE0329748EF5FEF23
:205680000417150716F42607370710F091E210C117C151D002E0A02E44275527662777275F
:2056A00004C0AFE3B3E05BD0AA243F932F931F930F937F936F935F934F93AF92B6DFAF9023
:2056C0004F915F916F917F910F911F912F913F91ABE3B3E0CD90DD90ED90FD9010F491324E
:2056E00049F5C016D106E206F30618F199278191982B8191982B2EF48191982B81918F7063
:20570000982B31F4A1FE0EC04F5F5F4F6F4F7F4F802F912F15D09127969516F48027880FCD
:2057200000F7C3CF32970EF43297AFE3B3E02BD0C7C092E2BDC00027112722273327089515
:205740000F5F1F4F2F4F3F4F08955527662777270C94EF32015010402040304008950D91B0
:205760001D912D913D910895019111912191319108954D915D916D917D91089541915191E4
:205780006191719108950D931D932D933D9308950193119321933193089541935193619302
:2057A0007193089522273327019111910895662777274D915D9108954191519108954D930F
:2057C0005D9308950D931D930895402F512F622F732F089500501040204030400895569598
:2057E00047958A95E1F70895440F551F8A95E1F7089584E09F9391919D938A95E1F79F91CF
:205800000895E881F9810895A881B98118960895E881F9813C960895E881F9813896B8CF33
:20582000E881F9813896A0CFF3DFB2CFF1DF9CCFEFDFA4CFA881B9811C960895E881F981E4
:2058400074960895FBDF90CFE881F981808D0895E881F98170960895FBDF86CFF9DF8ECFF1
:20586000F7DF96CF0090260300FA8FEF819381931EF481938FE0819342C00090260300FA36
:205880000193119316F42193319339C0E881F98179960895D3DF7CCFA881B98154960895DF
:2058A0000F900F900F900F900F900F90089522960894909324030895882799E4F9CF2296AA
:2058C000889490E0F6CF22968894089522960894089580EA01C084E8E881F9819F93908D4C
:2058E000892B808F9F910895E881F9819F93908D80958923808F9F91089588E0EDCF809114
:20590000750388608093750308950E94BF2808F0D7CFCECF0E94D42808F0D2CFC9CFA1E7E4
:20592000B3E0E6E7F3E0F1CF80E1A1E7B3E006C080E0A1E7B3E002C0AFDF80E81ADF0E9464
:20594000F93231F4E8941196EA2FFB2F1597BCCF9D91EA2FFB2F792F777E872B8E931497CE
:2059600093FF18C00F931F932F933F939F93AF93BF93D0DFBF91AF919F91A8F094FF06C0AF
:20598000AF93BF939BD3BF91AF9168F03F912F911F910F91F8DED7DFEF93FF93B6DFFF9178
:2059A000EF91689408957ECF4FDF8670B1F454DF00271E7F442752E0C9DE52DF45DF867032
:2059C00061F440DFF3DD20F067DFB6DF38F080C2913221F480DF91E26BCF91E069CFDDD0F4
:2059E00009F06BCFFA93EA93A4D008F46FCF83858F3099F0827C89F480818E3271F0853E0C
:205A000061F08030D1F0A881B9819C919F3311F0981303C07BE0B4D0A1F0B09681E0480F85
:205A200025F78827581F5F934F930FD008F080DF4F915F91D0F6903C08F492E4E991F99142
:205A400037CFAFE6B3E0BBDE3ACF0090260300FC19C0A7E4B3E083DEA0E3B3E05F934F937F
:205A600088DE0E94F9324F915F9161F4A4E3B3E06D917D914617570710F091E319CF0FD0B2
:205A80005FDE1ECF0CD03F932F931F930F938EDD08F008CF0F911F912F913F910895A1E7D9
:205AA000B3E05DCE4ED0E0F18081853E81F1803071F1B09681E0480FBDF78827581F5F9327
:205AC0004F93C3DF08F034DF4F915F9168F7913239F55F934F937FDD3F932F931F930F93FF
:205AE000E0DDF8F0BFDE71DE0F911F912F913F917F936F935F934F9398DD0F911F912F91C8
:205B00003F9180F4913281F4B8DE96D2DDCFAFE6B3E055DE24DEABE4B3E051DE34DED0CE01
:205B2000C7CEBECE93E2C4DEBFCEA881B98112960AC044275527A7E4B3E006C0ADE5B3E0DB
:205B400002C0ABE4B3E035DE0ADE5A934A93F0DE50F048814F70552785E046DEE40FF51FFA
:205B600049915991ADCEB2CEADE5B3E0ECDFFF93EF93E1E5F3E0FA93EA93EF91FF914DCF93
:205B8000FF93EF9381919D919F3311F0891711F47A95C1F7EF91FF910895E3E6F3E08F9307
:205BA000E89499277BE0AEF08D918A3219F48FE368940FC08E3239F4733011F4E894F3CFB9
:205BC00080E2689406C0803011F480E20CC00E94973281938F3309F49395743009F4E8943B
:205BE0007A9509F704C080E281937A95E9F780E081933C9799238F91089588E0FBDD38979E
:205C000088278D930895389683E0F4DD3B9788278D930895928D9D93938D9D930090260380
:205C200000FE05C094899D9395899D93089599279D939D9308957C96DCDDB0970895882352
:205C400011F49AE435CE31E0E6E7F5E0E8942081222329F4AEF0EE2EFF2E689411C0281799
:205C600049F1EF93FF938F933296AFE6B3E085D38F91FF91EF9121F41181192310FF1CC06E
:205C80003A9519F0E65EFD4FE2CFC6F4EE2DFF2D18D080839183EF93FF938F9386E0329687
:205CA000AE2FBF2FEFE6F3E086E0A4DD8F91FF91EF9106CE95E4FCCD96E4FACD94E4F8CDC6
:205CC000A0DD09E1002401920A95E9F779970895882369F071E0E6E7F5E09081981749F08A
:205CE0007A9519F0E65EFD4FF8CF93E4E1CD9AE4DFCD089580E8ECDF28F08395E1F791E499
:205D00008827D6CDDDCD7DDD02C0E2DF20F081E0E3DD6CD1D5CF08958F939F9363DE7F9156
:205D20008F91E8F0972F6385692760FF03C0692760FD18C0FF93EF9382DFFA93EA93EF9147
:205D4000FF9168F077DD77DF5FDD64DF69DD42DD39F056DCF1DD40F0BBD076DDB4CD089578
:205D6000B8DDFBCF98E4A4CDB1CDE881F9819181917251F1E881F981808D81FD23C07096C8
:205D8000F3DC912F802FDCDC349702DDE881F9813C96F4DC0E94F93230F038967081726060
:205DA0007193112704C0E881F981799619279170E80FF91F8081169521F08F93FFDD8F91C6
:205DC00008957ECD91E074CD92E672CDFF93EF938F939F9311C0FF93EF938F939F9339D0C8
:205DE00058F4923451F508C0FF93EF938F939F93F9DD08F5923409F555DE00F121D09F913F
:205E00008F91FF93EF931BDFAF91BF91C0F0FA93EA93EF91FF919F938BE0ECDC9F91917064
:205E200090629D93129689D2149687D268DD51DDE991F99145CD92E33BDD089433CD34CD87
:205E400085EE819388279FE181939A95E9F7B097089509F031CDC6DD70F183858F7D11F075
:205E600093E326CDFF93EF9356D0EF91FF9118F1FF93EF9321D0EF91FF9185EE80833FDDBF
:205E800022273327028D138D0090260300FE02C0248935899FDC69F015D0C7DB80E081937D
:205EA000819316F4819381932ADDB0F7913211F4EAC0FAC008940895EFE6F3E0ABE4B3E0BF
:205EC00086E059C2E0E1FF27AFE3B3E084E053C2ADDCC4DC0E94F932C2F0C9F03BDC7327AA
:205EE00061F4622751F45127569539F49FDCB6DC0E94F43284E0F0DCE3CC00E012E086E003
:205F0000F3DCDECC84E0E8DCDBCC91E601C091E086E0E2DCCDCC71E0E6E7F5E08081882334
:205F200051F0FF93EF933296AFE6B3E086E025D2EF91FF9129F07A9529F0E65EFD4FEECF21
:205F400097E4B6CCBDCC7EDC31DB28F07DDC81FFF3CCA0DC8FC09132F9F4A3DBE8F08FEF56
:205F6000819381930090260300FE03C081938FE08193C5DC0F931F932F933F9354DB3F9160
:205F80002F911F910F9130F4913221F499DC75DC37DBDCCF93E28CCC089583DB30F18FEF0B
:205FA000819381930090260300FE03C081938FE08193A5DC3F932F931F930F932DDCB5DDA4
:205FC0000F911F912F913F9180F0028F138F0090260300FE02C0248B358B91DC11DB5ADCC7
:205FE000AADB3EDC80E280DC889408952DDC83FF09C024DCAE2FBF2F34968081877F819387
:2060000089DCC0F021DC86FF16C087FF02C080FF12C08BDD78F0AE2FBF2F1B968C9180622F
:206020008C93519681E460DC01DCADDB1A9785D166DC3AC0089544CCE3DA80913A038F9337
:2060400077DC18F018D05BDC88948F9190F08A9529F0E1E7F3E088DB73DBF1CF40913A03B8
:206060004A9531F0E1E7F3E07FDB041B74DB60CC27CC08950BDC772792E080E0719301970E
:20608000E9F7F2501DCC80E1A1E7B3E0E5E7F3E0908193FF08958193BF93AF933BDCAF919B
:2060A000BF9108F408950AC080E0A1E7B3E0E5E7F3E0908193FF089581932CCCEBE2F3E027
:2060C000819181FF08955ADB4ADBEA2FFB2F31960E94EF32A3E4B3E056DB14971BCCE88124
:2060E000F981092E9181902111F08894089592E6DFCBE881F98191819A7279F1E881F98102
:206100008F93908D95FF06C048DF48F1B3DFE881F981908D709628DBF12EE02E11DB349707
:2061200037DBE881F9813C9629DB401751076207730718F434972CDB92641F259860E88189
:20614000F981789691939F2D9170EE0DF91F8F918193169531F04ADFF6CE92E6A9CB8F91BA
:20616000089588940895F6DA332312F493E6A0CB19F46ADB85FDA4CB5BDB0E94F932C1F1C1
:20618000A8F53F932F931F930F937CD05C2D6D2D7E2D4F9361DB76D055DB7F936F935F93C6
:2061A0001ADA5F916F917F915C156D057E0528F089F05C196D097E0901C032DB5150604073
:2061C000704040F07F936F935F932FDA5F916F917F91A0F715DA4F91B8DAAEDBC8F00F91F7
:2061E0001F912F913F913CDB73DE6ACB91E660CB002339F6812F817021F6ACDAB5DF40F0CC
:206200002BDB9EDA2DDB9FDE20F4913011F0089408951ADB81FD2ECF53CB91E260DF70F1CB
:2062200013DB81FD2CC05F934F9375D04F915F9130F1662777270E94F93210F4402F512F11
:2062400061D041505040B8F00F3F81F410FF0EC007DBBF93AF935F934F938CDD4F915F9121
:20626000AF91BF9158F0F8DA11DB03C00F5F1F4F81918D93E6CFF4DA4ED022CB08952BDB86
:2062800091E016CB80913A03369527951795412F90E0869530F03695279517950894991F89
:2062A000F8CFC12ED22EE32E492308959AE217DF40F128D041505040B8F08D9195FD04C036
:2062C0000F3F71F410FF0CC0CBDABF93AF935F934F9314DF4F915F91AF91BF9190F0E9CF98
:2062E00081930F5F1F4FE6CF08DBA2DA401751076207730718F498DA80E4EEDAB1DA0BD0F8
:20630000DFCA08957EDA908DA7DAC0DA712F7170E00FF71F0895E881F981808D87DA9EDABB
:2063200070DA0E94F43228F021F08D7F808F889408958660808F0894089581E0AA24BB2412
:20634000C82ED82EE82EF82ECC0CCC0CCC0C8827B6948795B69487958A29B6948795BC2805
:206360008D93BD9284E18F0DE294EE0C881FED28ED928D930895689401C0E894FA93EA9302
:20638000BA93AA93082E8817CFB6A190BD90CFBEAB04CFB68A95C9F7CFBE46F438F4802D5B
:2063A000A881B981EA81FB8125DACFBEA991B991E991F99108955A924A92480E591E0895B0
:2063C0005A924A92480E8827581E0895480E8827581E08950F92B801469F8001479F100D02
:2063E000569F100D0F9008950F921F922F92C801D901489F80014A9F90014B9F202C499F99
:20640000100D211D321D5A9F202C589F100D211D321D599F200D311D689F200D311D699FEF
:20642000300D789F300D2F901F900F9008950E947C320D920020D9F7089570917A00706456
:2064400070937A0000907A0006FCFCCF70917A00706470937A0000907A0006FCFCCF809134
:206460007800909179000895903029F08C91880F9A95E9F78C930895903041F00D911C91D9
:20648000000F111F9A95E1F71C930E930895903071F00D911D912D913C91000F111F221F51
:2064A000331F9A95D1F73C932E931E930E930895903029F08C9186959A95E9F78C93089538
:2064C000903041F00D911C91169507959A95E1F71C930E930895903071F00D911D912D911A
:2064E0003C9136952795179507959A95D1F73C932E931E930E930895C895319600200895A9
:2065000091E005C092E003C094E001C098E0F4DF0D929A95E1F70895E80FF91FF1CF82E01C
:2065200001C084E099279D938A95E9F70895813618F08B3708F48F7D089591E0882321F057
:206540008894991F8A95E9F7892F90950895883018F011968850FBCF089580E30EF48395CB
:2065600008952E2E3F2E992781918D3209F093958823D1F79A95E22DF32D112361F009178D
:2065800018F011F0101B01C0191B28F021F080E28D931A95E9F780818D3219F48D933196E4
:2065A00004C0222311F08BE28D93091738F031F0091B21F080E38D930A95E9F781918D9372
:2065C0008823E1F7332351F0EA2FFB2F319633958E9182933A95E1F78EE28C930895040FB5
:2065E000151F261F371F0895041B150B260B370B089504171507260737070895000F111F62
:20660000221F331F089500951095209530950F5F1F4F2F4F3F4F08950191108113C0019189
:2066200011912191308110C0019111912191308110C00191108117FF05C03FEF2FEF04C010
:20664000008111272227332737FF03C0DCDF8DE28D93CF93DF93CF92DF92EF92AA24BB24C7
:20666000CC24DD24EE2440E2CAE0DD2755E093E38881890F87FD9F7083FD907F891B899319
:206680005A95A9F7BBDFAA1CBB1CCC1CDD1CEE1C4A9551F7E894EFE0FF2782910ED0EB30A5
:2066A000E0F71EF068948A2D0CD088278D93EF90DF90CF90DF91CF910895982F829501D02E
:2066C000892F8F70805D26F0803309F4089568948D93089500271127222733271DD08A335E
:2066E00028F4803318F005D015D0F9CF0EF48BCF089580538F93402F512F622F732F7EDFD4
:206700007DDF6DDF7BDF8F919927080F191F291F391F08958D910895E894FCDF8032E9F36B
:206720008B32D9F38930C9F38D3211F46894F2CF089541E003C042E001C044E0E40F8827B0
:20674000F81F8291982F829506D0892F04D04A95C1F70C94C9338F708A3008F0895F805D26
:206760008D93089500271127222733278D91882379F044DF43DF42DF41DFD9DE815408F41A
:20678000895F865F080F8827181F281F381FEECF089588278D93089581918D938823E1F716
:2067A0000895FADF11978E918032E9F31196F1CF09919191992351F08A95D9F73197819125
:2067C0008D930A9519F08823D1F70895E2CF8FEF83959D919923E1F70895689401C0E89402
:2067E000AF93BF938D9116F0919103C00E947C32902D891718F011F48823A1F7BF91AF916F
:206800000895010000002020205344204552524F52212020000077656C636F6D6500766511
:20682000722E312E31002020207550524F472020202020203E466C6173682020202020206F
:2068400020203E456570726F6D202020202020203E467573656269747320202020203E4CC5
:206860006F636B6269747320202020203E53657474696E6773202020202000003E466C6109
:20688000736820202020202020200000666C617368003E456570726F6D2020202020202089
:2068A0000000656570726F6D00003E46757365626974732020202020000066757365620018
:2068C0003E4C6F636B62697473202020202000006C6F636B62003E53657474696E677320E5
:2068E0002020202000004175746F2076657269667900577269746520202020202000417549
:20690000746F206572617365200052656164202020202020200053686F7720616E696D730F
:20692000200056657269667920202020200044656661756C74732020200043686970206581
